{
  "_format": "hh-sol-artifact-1",
  "contractName": "CondominiumAdapter",
  "sourceName": "contracts/CondominiumAdapter.sol",
  "abi": [
    {
      "inputs": [],
      "stateMutability": "nonpayable",
      "type": "constructor"
    },
    {
      "anonymous": false,
      "inputs": [
        {
          "indexed": false,
          "internalType": "address",
          "name": "manager",
          "type": "address"
        }
      ],
      "name": "ManagerChaged",
      "type": "event"
    },
    {
      "anonymous": false,
      "inputs": [
        {
          "indexed": false,
          "internalType": "uint256",
          "name": "amount",
          "type": "uint256"
        }
      ],
      "name": "QuotaChanged",
      "type": "event"
    },
    {
      "anonymous": false,
      "inputs": [
        {
          "indexed": true,
          "internalType": "bytes32",
          "name": "topicId",
          "type": "bytes32"
        },
        {
          "indexed": false,
          "internalType": "string",
          "name": "title",
          "type": "string"
        },
        {
          "indexed": true,
          "internalType": "enum CondominiumLib.Status",
          "name": "status",
          "type": "uint8"
        }
      ],
      "name": "TopicChange",
      "type": "event"
    },
    {
      "anonymous": false,
      "inputs": [
        {
          "indexed": false,
          "internalType": "address",
          "name": "to",
          "type": "address"
        },
        {
          "indexed": true,
          "internalType": "uint256",
          "name": "amount",
          "type": "uint256"
        },
        {
          "indexed": false,
          "internalType": "string",
          "name": "topic",
          "type": "string"
        }
      ],
      "name": "Transfer",
      "type": "event"
    },
    {
      "inputs": [
        {
          "internalType": "address",
          "name": "resident",
          "type": "address"
        },
        {
          "internalType": "uint16",
          "name": "resideceId",
          "type": "uint16"
        }
      ],
      "name": "addResident",
      "outputs": [],
      "stateMutability": "nonpayable",
      "type": "function"
    },
    {
      "inputs": [
        {
          "internalType": "string",
          "name": "title",
          "type": "string"
        },
        {
          "internalType": "string",
          "name": "description",
          "type": "string"
        },
        {
          "internalType": "enum CondominiumLib.Category",
          "name": "category",
          "type": "uint8"
        },
        {
          "internalType": "uint256",
          "name": "amount",
          "type": "uint256"
        },
        {
          "internalType": "address",
          "name": "responsible",
          "type": "address"
        }
      ],
      "name": "addTopic",
      "outputs": [],
      "stateMutability": "nonpayable",
      "type": "function"
    },
    {
      "inputs": [
        {
          "internalType": "string",
          "name": "title",
          "type": "string"
        }
      ],
      "name": "closeVoting",
      "outputs": [],
      "stateMutability": "nonpayable",
      "type": "function"
    },
    {
      "inputs": [
        {
          "internalType": "string",
          "name": "topicToEdit",
          "type": "string"
        },
        {
          "internalType": "string",
          "name": "description",
          "type": "string"
        },
        {
          "internalType": "uint256",
          "name": "amount",
          "type": "uint256"
        },
        {
          "internalType": "address",
          "name": "responsible",
          "type": "address"
        }
      ],
      "name": "editTopic",
      "outputs": [],
      "stateMutability": "nonpayable",
      "type": "function"
    },
    {
      "inputs": [],
      "name": "getImplAddress",
      "outputs": [
        {
          "internalType": "address",
          "name": "",
          "type": "address"
        }
      ],
      "stateMutability": "view",
      "type": "function"
    },
    {
      "inputs": [],
      "name": "getManager",
      "outputs": [
        {
          "internalType": "address",
          "name": "",
          "type": "address"
        }
      ],
      "stateMutability": "view",
      "type": "function"
    },
    {
      "inputs": [],
      "name": "getQuota",
      "outputs": [
        {
          "internalType": "uint256",
          "name": "",
          "type": "uint256"
        }
      ],
      "stateMutability": "view",
      "type": "function"
    },
    {
      "inputs": [
        {
          "internalType": "address",
          "name": "resident",
          "type": "address"
        }
      ],
      "name": "getResident",
      "outputs": [
        {
          "components": [
            {
              "internalType": "address",
              "name": "wallet",
              "type": "address"
            },
            {
              "internalType": "uint16",
              "name": "residence",
              "type": "uint16"
            },
            {
              "internalType": "bool",
              "name": "isCounselor",
              "type": "bool"
            },
            {
              "internalType": "bool",
              "name": "isManager",
              "type": "bool"
            },
            {
              "internalType": "uint256",
              "name": "nextPayment",
              "type": "uint256"
            }
          ],
          "internalType": "struct CondominiumLib.Resident",
          "name": "",
          "type": "tuple"
        }
      ],
      "stateMutability": "view",
      "type": "function"
    },
    {
      "inputs": [
        {
          "internalType": "uint256",
          "name": "page",
          "type": "uint256"
        },
        {
          "internalType": "uint256",
          "name": "pageSize",
          "type": "uint256"
        }
      ],
      "name": "getResidents",
      "outputs": [
        {
          "components": [
            {
              "components": [
                {
                  "internalType": "address",
                  "name": "wallet",
                  "type": "address"
                },
                {
                  "internalType": "uint16",
                  "name": "residence",
                  "type": "uint16"
                },
                {
                  "internalType": "bool",
                  "name": "isCounselor",
                  "type": "bool"
                },
                {
                  "internalType": "bool",
                  "name": "isManager",
                  "type": "bool"
                },
                {
                  "internalType": "uint256",
                  "name": "nextPayment",
                  "type": "uint256"
                }
              ],
              "internalType": "struct CondominiumLib.Resident[]",
              "name": "residents",
              "type": "tuple[]"
            },
            {
              "internalType": "uint256",
              "name": "total",
              "type": "uint256"
            }
          ],
          "internalType": "struct CondominiumLib.ResidentPage",
          "name": "",
          "type": "tuple"
        }
      ],
      "stateMutability": "view",
      "type": "function"
    },
    {
      "inputs": [
        {
          "internalType": "string",
          "name": "title",
          "type": "string"
        }
      ],
      "name": "getTopic",
      "outputs": [
        {
          "components": [
            {
              "internalType": "string",
              "name": "title",
              "type": "string"
            },
            {
              "internalType": "string",
              "name": "description",
              "type": "string"
            },
            {
              "internalType": "enum CondominiumLib.Status",
              "name": "status",
              "type": "uint8"
            },
            {
              "internalType": "uint256",
              "name": "createDate",
              "type": "uint256"
            },
            {
              "internalType": "uint256",
              "name": "startDate",
              "type": "uint256"
            },
            {
              "internalType": "uint256",
              "name": "endDate",
              "type": "uint256"
            },
            {
              "internalType": "enum CondominiumLib.Category",
              "name": "category",
              "type": "uint8"
            },
            {
              "internalType": "uint256",
              "name": "amount",
              "type": "uint256"
            },
            {
              "internalType": "address",
              "name": "responsible",
              "type": "address"
            }
          ],
          "internalType": "struct CondominiumLib.Topic",
          "name": "",
          "type": "tuple"
        }
      ],
      "stateMutability": "view",
      "type": "function"
    },
    {
      "inputs": [
        {
          "internalType": "uint256",
          "name": "page",
          "type": "uint256"
        },
        {
          "internalType": "uint256",
          "name": "pageSize",
          "type": "uint256"
        }
      ],
      "name": "getTopics",
      "outputs": [
        {
          "components": [
            {
              "components": [
                {
                  "internalType": "string",
                  "name": "title",
                  "type": "string"
                },
                {
                  "internalType": "string",
                  "name": "description",
                  "type": "string"
                },
                {
                  "internalType": "enum CondominiumLib.Status",
                  "name": "status",
                  "type": "uint8"
                },
                {
                  "internalType": "uint256",
                  "name": "createDate",
                  "type": "uint256"
                },
                {
                  "internalType": "uint256",
                  "name": "startDate",
                  "type": "uint256"
                },
                {
                  "internalType": "uint256",
                  "name": "endDate",
                  "type": "uint256"
                },
                {
                  "internalType": "enum CondominiumLib.Category",
                  "name": "category",
                  "type": "uint8"
                },
                {
                  "internalType": "uint256",
                  "name": "amount",
                  "type": "uint256"
                },
                {
                  "internalType": "address",
                  "name": "responsible",
                  "type": "address"
                }
              ],
              "internalType": "struct CondominiumLib.Topic[]",
              "name": "topics",
              "type": "tuple[]"
            },
            {
              "internalType": "uint256",
              "name": "total",
              "type": "uint256"
            }
          ],
          "internalType": "struct CondominiumLib.TopicPage",
          "name": "",
          "type": "tuple"
        }
      ],
      "stateMutability": "view",
      "type": "function"
    },
    {
      "inputs": [
        {
          "internalType": "string",
          "name": "topicTitle",
          "type": "string"
        }
      ],
      "name": "getVotes",
      "outputs": [
        {
          "components": [
            {
              "internalType": "address",
              "name": "resident",
              "type": "address"
            },
            {
              "internalType": "uint16",
              "name": "residence",
              "type": "uint16"
            },
            {
              "internalType": "enum CondominiumLib.Options",
              "name": "option",
              "type": "uint8"
            },
            {
              "internalType": "uint256",
              "name": "timestamp",
              "type": "uint256"
            }
          ],
          "internalType": "struct CondominiumLib.Vote[]",
          "name": "",
          "type": "tuple[]"
        }
      ],
      "stateMutability": "view",
      "type": "function"
    },
    {
      "inputs": [
        {
          "internalType": "string",
          "name": "title",
          "type": "string"
        }
      ],
      "name": "openVoting",
      "outputs": [],
      "stateMutability": "nonpayable",
      "type": "function"
    },
    {
      "inputs": [],
      "name": "owner",
      "outputs": [
        {
          "internalType": "address",
          "name": "",
          "type": "address"
        }
      ],
      "stateMutability": "view",
      "type": "function"
    },
    {
      "inputs": [
        {
          "internalType": "uint16",
          "name": "residentId",
          "type": "uint16"
        }
      ],
      "name": "payQuota",
      "outputs": [],
      "stateMutability": "payable",
      "type": "function"
    },
    {
      "inputs": [
        {
          "internalType": "address",
          "name": "resident",
          "type": "address"
        }
      ],
      "name": "removeResident",
      "outputs": [],
      "stateMutability": "nonpayable",
      "type": "function"
    },
    {
      "inputs": [
        {
          "internalType": "string",
          "name": "title",
          "type": "string"
        }
      ],
      "name": "removeTopic",
      "outputs": [],
      "stateMutability": "nonpayable",
      "type": "function"
    },
    {
      "inputs": [
        {
          "internalType": "address",
          "name": "resident",
          "type": "address"
        },
        {
          "internalType": "bool",
          "name": "isEntering",
          "type": "bool"
        }
      ],
      "name": "setCounselor",
      "outputs": [],
      "stateMutability": "nonpayable",
      "type": "function"
    },
    {
      "inputs": [
        {
          "internalType": "string",
          "name": "topicTitle",
          "type": "string"
        },
        {
          "internalType": "uint256",
          "name": "amount",
          "type": "uint256"
        }
      ],
      "name": "transfer",
      "outputs": [],
      "stateMutability": "nonpayable",
      "type": "function"
    },
    {
      "inputs": [
        {
          "internalType": "address",
          "name": "newImplementation",
          "type": "address"
        }
      ],
      "name": "upgrade",
      "outputs": [],
      "stateMutability": "nonpayable",
      "type": "function"
    },
    {
      "inputs": [
        {
          "internalType": "string",
          "name": "title",
          "type": "string"
        },
        {
          "internalType": "enum CondominiumLib.Options",
          "name": "option",
          "type": "uint8"
        }
      ],
      "name": "vote",
      "outputs": [],
      "stateMutability": "nonpayable",
      "type": "function"
    }
  ],
  "bytecode": "0x60a0604052348015600f57600080fd5b503360805260805161268b610036600039600081816103310152610473015261268b6000f3fe60806040526004361061016a5760003560e01c8063805265e5116100cb5780639e1bf9851161007f578063c12e806311610059578063c12e806314610420578063d500958414610433578063eaf5d9dc1461044857600080fd5b80639e1bf985146103b3578063a7107f02146103d3578063b15835461461040057600080fd5b80638fc5dad8116100b05780638fc5dad81461035357806390ca27f31461037357806396fa1def1461039357600080fd5b8063805265e5146102f25780638da5cb5b1461031f57600080fd5b806356ea46d9116101225780637311ad81116101075780637311ad81146102735780637932938b146102a55780637b57ee49146102d257600080fd5b806356ea46d914610226578063597de9871461025357600080fd5b80631df8ba77116101535780631df8ba77146101b157806343b8c6b1146101d9578063474502d8146101f957600080fd5b80630900f0101461016f57806312cb70c714610191575b600080fd5b34801561017b57600080fd5b5061018f61018a366004611749565b610468565b005b34801561019d57600080fd5b5061018f6101ac3660046118a2565b610575565b3480156101bd57600080fd5b506101c661069b565b6040519081526020015b60405180910390f35b3480156101e557600080fd5b5061018f6101f43660046118f4565b61075c565b34801561020557600080fd5b5061021961021436600461198e565b61082d565b6040516101d09190611b03565b34801561023257600080fd5b50610246610241366004611b16565b610911565b6040516101d09190611b38565b34801561025f57600080fd5b5061018f61026e366004611749565b610a06565b34801561027f57600080fd5b506000546001600160a01b03165b6040516001600160a01b0390911681526020016101d0565b3480156102b157600080fd5b506102c56102c0366004611b16565b610ac3565b6040516101d09190611bb4565b3480156102de57600080fd5b5061018f6102ed36600461198e565b610baf565b3480156102fe57600080fd5b5061031261030d36600461198e565b610cdf565b6040516101d09190611c57565b34801561032b57600080fd5b5061028d7f000000000000000000000000000000000000000000000000000000000000000081565b34801561035f57600080fd5b5061018f61036e36600461198e565b610db6565b34801561037f57600080fd5b5061018f61038e366004611cd3565b6110ba565b34801561039f57600080fd5b5061018f6103ae366004611d33565b611181565b3480156103bf57600080fd5b5061018f6103ce36600461198e565b61121a565b3480156103df57600080fd5b506103f36103ee366004611749565b6112aa565b6040516101d09190611d61565b34801561040c57600080fd5b5061018f61041b366004611dbb565b6113a0565b61018f61042e366004611de9565b61143b565b34801561043f57600080fd5b5061028d6114e4565b34801561045457600080fd5b5061018f610463366004611e06565b6115a0565b336001600160a01b037f000000000000000000000000000000000000000000000000000000000000000016146104e55760405162461bcd60e51b815260206004820152601a60248201527f596f7520646f206e6f742068617665207065726d697373696f6e00000000000060448201526064015b60405180910390fd5b6001600160a01b03811661053b5760405162461bcd60e51b815260206004820152600f60248201527f496e76616c69642061646472657373000000000000000000000000000000000060448201526064016104dc565b600080547fffffffffffffffffffffffff0000000000000000000000000000000000000000166001600160a01b0392909216919091179055565b6000546001600160a01b03166105bb5760405162461bcd60e51b8152602060048201526016602482015260008051602061263683398151915260448201526064016104dc565b600080546040517f12cb70c70000000000000000000000000000000000000000000000000000000081526001600160a01b03909116906312cb70c7906106079086908690600401611e8b565b6000604051808303816000875af1158015610626573d6000803e3d6000fd5b505050506040513d6000823e601f3d908101601f1916820160405261064e9190810190611efd565b905080602001517feb10b79f28ae0b520cb7ee8e40115f547bfac852d7167a55d9ae8e028ee23a118260000151836040015160405161068e929190611fa9565b60405180910390a2505050565b600080546001600160a01b03166106e25760405162461bcd60e51b8152602060048201526016602482015260008051602061263683398151915260448201526064016104dc565b60008054906101000a90046001600160a01b03166001600160a01b0316631df8ba776040518163ffffffff1660e01b8152600401602060405180830381865afa158015610733573d6000803e3d6000fd5b505050506040513d601f19601f820116820180604052508101906107579190611fcb565b905090565b6000546001600160a01b03166107a25760405162461bcd60e51b8152602060048201526016602482015260008051602061263683398151915260448201526064016104dc565b6000546040517f43b8c6b10000000000000000000000000000000000000000000000000000000081526001600160a01b03909116906343b8c6b1906107f39088908890889088908890600401611fe4565b600060405180830381600087803b15801561080d57600080fd5b505af1158015610821573d6000803e3d6000fd5b505050505b5050505050565b6108356116d9565b6000546001600160a01b031661087b5760405162461bcd60e51b8152602060048201526016602482015260008051602061263683398151915260448201526064016104dc565b6000546040517f474502d80000000000000000000000000000000000000000000000000000000081526001600160a01b039091169063474502d8906108c490859060040161203a565b600060405180830381865afa1580156108e1573d6000803e3d6000fd5b505050506040513d6000823e601f3d908101601f191682016040526109099190810190612139565b90505b919050565b6040805180820190915260608152600060208201526000546001600160a01b031661096c5760405162461bcd60e51b8152602060048201526016602482015260008051602061263683398151915260448201526064016104dc565b6000546040517f56ea46d900000000000000000000000000000000000000000000000000000000815260048101859052602481018490526001600160a01b03909116906356ea46d990604401600060405180830381865afa1580156109d5573d6000803e3d6000fd5b505050506040513d6000823e601f3d908101601f191682016040526109fd9190810190612192565b90505b92915050565b6000546001600160a01b0316610a4c5760405162461bcd60e51b8152602060048201526016602482015260008051602061263683398151915260448201526064016104dc565b6000546040517f597de9870000000000000000000000000000000000000000000000000000000081526001600160a01b0383811660048301529091169063597de98790602401600060405180830381600087803b158015610aac57600080fd5b505af1158015610826573d6000803e3d6000fd5b50565b6040805180820190915260608152600060208201526000546001600160a01b0316610b1e5760405162461bcd60e51b8152602060048201526016602482015260008051602061263683398151915260448201526064016104dc565b6000546040517f7932938b00000000000000000000000000000000000000000000000000000000815260048101859052602481018490526001600160a01b0390911690637932938b90604401600060405180830381865afa158015610b87573d6000803e3d6000fd5b505050506040513d6000823e601f3d908101601f191682016040526109fd919081019061231d565b6000546001600160a01b0316610bf55760405162461bcd60e51b8152602060048201526016602482015260008051602061263683398151915260448201526064016104dc565b600080546040517f7b57ee490000000000000000000000000000000000000000000000000000000081526001600160a01b0390911690637b57ee4990610c3f90859060040161203a565b6000604051808303816000875af1158015610c5e573d6000803e3d6000fd5b505050506040513d6000823e601f3d908101601f19168201604052610c8691908101906123fd565b905080604001516005811115610c9e57610c9e611a1b565b815160208301516040517f2ed381ce7f87307c34401c803e151b12f56d2b87f429460b5ea39c93abd0ca5791610cd39161203a565b60405180910390a35050565b6000546060906001600160a01b0316610d285760405162461bcd60e51b8152602060048201526016602482015260008051602061263683398151915260448201526064016104dc565b6000546040517f805265e50000000000000000000000000000000000000000000000000000000081526001600160a01b039091169063805265e590610d7190859060040161203a565b600060405180830381865afa158015610d8e573d6000803e3d6000fd5b505050506040513d6000823e601f3d908101601f1916820160405261090991908101906124a0565b6000546001600160a01b0316610dfc5760405162461bcd60e51b8152602060048201526016602482015260008051602061263683398151915260448201526064016104dc565b600080546040517f8fc5dad80000000000000000000000000000000000000000000000000000000081526001600160a01b0390911690638fc5dad890610e4690859060040161203a565b6000604051808303816000875af1158015610e65573d6000803e3d6000fd5b505050506040513d6000823e601f3d908101601f19168201604052610e8d91908101906123fd565b905080604001516005811115610ea557610ea5611a1b565b815160208301516040517f2ed381ce7f87307c34401c803e151b12f56d2b87f429460b5ea39c93abd0ca5791610eda9161203a565b60405180910390a3600281604001516005811115610efa57610efa611a1b565b036110b657600381606001516003811115610f1757610f17611a1b565b03610fe157600054604080517fd500958400000000000000000000000000000000000000000000000000000000815290517fea65407d6f444a1a47fff66f4009f697d87138dee49433df75c7f1a263be230b926001600160a01b03169163d50095849160048083019260209291908290030181865afa158015610f9e573d6000803e3d6000fd5b505050506040513d601f19601f82011682018060405250810190610fc2919061258b565b6040516001600160a01b03909116815260200160405180910390a15050565b600281606001516003811115610ff957610ff9611a1b565b036110b657600054604080517f1df8ba7700000000000000000000000000000000000000000000000000000000815290517f274a3b0d5142ec9fc4e77bd3ffc173b4e7c6c64eca73b31a6c6906b184257e7e926001600160a01b031691631df8ba779160048083019260209291908290030181865afa158015611080573d6000803e3d6000fd5b505050506040513d601f19601f820116820180604052508101906110a49190611fcb565b60405190815260200160405180910390a15b5050565b6000546001600160a01b03166111005760405162461bcd60e51b8152602060048201526016602482015260008051602061263683398151915260448201526064016104dc565b6000546040517f90ca27f30000000000000000000000000000000000000000000000000000000081526001600160a01b03909116906390ca27f39061114b90859085906004016125a8565b600060405180830381600087803b15801561116557600080fd5b505af1158015611179573d6000803e3d6000fd5b505050505050565b6000546001600160a01b03166111c75760405162461bcd60e51b8152602060048201526016602482015260008051602061263683398151915260448201526064016104dc565b6000546040517f96fa1def0000000000000000000000000000000000000000000000000000000081526001600160a01b0384811660048301528315156024830152909116906396fa1def9060440161114b565b6000546001600160a01b03166112605760405162461bcd60e51b8152602060048201526016602482015260008051602061263683398151915260448201526064016104dc565b600080546040517f9e1bf9850000000000000000000000000000000000000000000000000000000081526001600160a01b0390911690639e1bf98590610c3f90859060040161203a565b6040805160a081018252600080825260208201819052918101829052606081018290526080810182905290546001600160a01b03166113195760405162461bcd60e51b8152602060048201526016602482015260008051602061263683398151915260448201526064016104dc565b6000546040517fa7107f020000000000000000000000000000000000000000000000000000000081526001600160a01b0384811660048301529091169063a7107f029060240160a060405180830381865afa15801561137c573d6000803e3d6000fd5b505050506040513d601f19601f8201168201806040525081019061090991906125d3565b6000546001600160a01b03166113e65760405162461bcd60e51b8152602060048201526016602482015260008051602061263683398151915260448201526064016104dc565b6000546040517fb15835460000000000000000000000000000000000000000000000000000000081526001600160a01b03848116600483015261ffff841660248301529091169063b15835469060440161114b565b6000546001600160a01b03166114815760405162461bcd60e51b8152602060048201526016602482015260008051602061263683398151915260448201526064016104dc565b6000546040517fc12e806300000000000000000000000000000000000000000000000000000000815261ffff831660048201526001600160a01b039091169063c12e80639034906024016000604051808303818588803b15801561116557600080fd5b600080546001600160a01b031661152b5760405162461bcd60e51b8152602060048201526016602482015260008051602061263683398151915260448201526064016104dc565b60008054906101000a90046001600160a01b03166001600160a01b031663d50095846040518163ffffffff1660e01b8152600401602060405180830381865afa15801561157c573d6000803e3d6000fd5b505050506040513d601f19601f82011682018060405250810190610757919061258b565b6000546001600160a01b03166115e65760405162461bcd60e51b8152602060048201526016602482015260008051602061263683398151915260448201526064016104dc565b600080546040517feaf5d9dc0000000000000000000000000000000000000000000000000000000081526001600160a01b039091169063eaf5d9dc906116369088908890889088906004016125ef565b6000604051808303816000875af1158015611655573d6000803e3d6000fd5b505050506040513d6000823e601f3d908101601f1916820160405261167d91908101906123fd565b90508060400151600581111561169557611695611a1b565b815160208301516040517f2ed381ce7f87307c34401c803e151b12f56d2b87f429460b5ea39c93abd0ca57916116ca9161203a565b60405180910390a35050505050565b604080516101208101825260608082526020820152908101600081526020016000815260200160008152602001600081526020016000600381111561172057611720611a1b565b815260006020820181905260409091015290565b6001600160a01b0381168114610ac057600080fd5b60006020828403121561175b57600080fd5b813561176681611734565b9392505050565b634e487b7160e01b600052604160045260246000fd5b604051610120810167ffffffffffffffff811182821017156117a7576117a761176d565b60405290565b6040805190810167ffffffffffffffff811182821017156117a7576117a761176d565b6040516080810167ffffffffffffffff811182821017156117a7576117a761176d565b604051601f8201601f1916810167ffffffffffffffff8111828210171561181c5761181c61176d565b604052919050565b600067ffffffffffffffff82111561183e5761183e61176d565b50601f01601f191660200190565b600082601f83011261185d57600080fd5b813561187061186b82611824565b6117f3565b81815284602083860101111561188557600080fd5b816020850160208301376000918101602001919091529392505050565b600080604083850312156118b557600080fd5b823567ffffffffffffffff8111156118cc57600080fd5b6118d88582860161184c565b95602094909401359450505050565b60048110610ac057600080fd5b600080600080600060a0868803121561190c57600080fd5b853567ffffffffffffffff81111561192357600080fd5b61192f8882890161184c565b955050602086013567ffffffffffffffff81111561194c57600080fd5b6119588882890161184c565b9450506040860135611969816118e7565b925060608601359150608086013561198081611734565b809150509295509295909350565b6000602082840312156119a057600080fd5b813567ffffffffffffffff8111156119b757600080fd5b6119c38482850161184c565b949350505050565b60005b838110156119e65781810151838201526020016119ce565b50506000910152565b60008151808452611a078160208601602086016119cb565b601f01601f19169290920160200192915050565b634e487b7160e01b600052602160045260246000fd5b60068110611a4157611a41611a1b565b9052565b60048110610ac057610ac0611a1b565b611a4181611a45565b600081516101208452611a756101208501826119ef565b905060208301518482036020860152611a8e82826119ef565b9150506040830151611aa36040860182611a31565b50606083015160608501526080830151608085015260a083015160a085015260c0830151611ad460c0860182611a55565b5060e083015160e0850152610100830151611afb6101008601826001600160a01b03169052565b509392505050565b6020815260006109fd6020830184611a5e565b60008060408385031215611b2957600080fd5b50508035926020909101359150565b6020815260006060820183516040602085015281815180845260808601915060808160051b870101935060208301925060005b81811015611b9c57607f19878603018352611b87858551611a5e565b94506020938401939290920191600101611b6b565b50505050602084015160408401528091505092915050565b602080825282516040838301528051606084018190526000929190910190829060808501905b80831015611c4057611c298285516001600160a01b03815116825261ffff6020820151166020830152604081015115156040830152606081015115156060830152608081015160808301525050565b60a082019150602084019350600183019250611bda565b506020860151604086015280935050505092915050565b602080825282518282018190526000918401906040840190835b81811015611cc85783516001600160a01b03815116845261ffff60208201511660208501526040810151611ca481611a45565b60408501526060908101519084015260209390930192608090920191600101611c71565b509095945050505050565b60008060408385031215611ce657600080fd5b823567ffffffffffffffff811115611cfd57600080fd5b611d098582860161184c565b9250506020830135611d1a816118e7565b809150509250929050565b8015158114610ac057600080fd5b60008060408385031215611d4657600080fd5b8235611d5181611734565b91506020830135611d1a81611d25565b60a08101610a0082846001600160a01b03815116825261ffff6020820151166020830152604081015115156040830152606081015115156060830152608081015160808301525050565b61ffff81168114610ac057600080fd5b60008060408385031215611dce57600080fd5b8235611dd981611734565b91506020830135611d1a81611dab565b600060208284031215611dfb57600080fd5b813561176681611dab565b60008060008060808587031215611e1c57600080fd5b843567ffffffffffffffff811115611e3357600080fd5b611e3f8782880161184c565b945050602085013567ffffffffffffffff811115611e5c57600080fd5b611e688782880161184c565b935050604085013591506060850135611e8081611734565b939692955090935050565b604081526000611e9e60408301856119ef565b90508260208301529392505050565b805161090c81611734565b600082601f830112611ec957600080fd5b8151611ed761186b82611824565b818152846020838601011115611eec57600080fd5b6119c38260208301602087016119cb565b600060208284031215611f0f57600080fd5b815167ffffffffffffffff811115611f2657600080fd5b820160608185031215611f3857600080fd5b6040516060810167ffffffffffffffff81118282101715611f5b57611f5b61176d565b6040528151611f6981611734565b815260208281015190820152604082015167ffffffffffffffff811115611f8f57600080fd5b611f9b86828501611eb8565b604083015250949350505050565b6001600160a01b03831681526040602082015260006119c360408301846119ef565b600060208284031215611fdd57600080fd5b5051919050565b60a081526000611ff760a08301886119ef565b828103602084015261200981886119ef565b91505061201585611a45565b8460408301528360608301526001600160a01b03831660808301529695505050505050565b6020815260006109fd60208301846119ef565b80516006811061090c57600080fd5b805161090c816118e7565b6000610120828403121561207a57600080fd5b612082611783565b9050815167ffffffffffffffff81111561209b57600080fd5b6120a784828501611eb8565b825250602082015167ffffffffffffffff8111156120c457600080fd5b6120d084828501611eb8565b6020830152506120e26040830161204d565b6040820152606082810151908201526080808301519082015260a0808301519082015261211160c0830161205c565b60c082015260e0828101519082015261212d6101008301611ead565b61010082015292915050565b60006020828403121561214b57600080fd5b815167ffffffffffffffff81111561216257600080fd5b6119c384828501612067565b600067ffffffffffffffff8211156121885761218861176d565b5060051b60200190565b6000602082840312156121a457600080fd5b815167ffffffffffffffff8111156121bb57600080fd5b8201604081850312156121cd57600080fd5b6121d56117ad565b815167ffffffffffffffff8111156121ec57600080fd5b8201601f810186136121fd57600080fd5b805161220b61186b8261216e565b8082825260208201915060208360051b85010192508883111561222d57600080fd5b602084015b8381101561226f57805167ffffffffffffffff81111561225157600080fd5b6122608b602083890101612067565b84525060209283019201612232565b508452505050602091820151918101919091529392505050565b600060a0828403121561229b57600080fd5b60405160a0810167ffffffffffffffff811182821017156122be576122be61176d565b806040525080915082516122d181611734565b815260208301516122e181611dab565b602082015260408301516122f481611d25565b6040820152606083015161230781611d25565b6060820152608092830151920191909152919050565b60006020828403121561232f57600080fd5b815167ffffffffffffffff81111561234657600080fd5b82016040818503121561235857600080fd5b6123606117ad565b815167ffffffffffffffff81111561237757600080fd5b8201601f8101861361238857600080fd5b805161239661186b8261216e565b80828252602082019150602060a084028501019250888311156123b857600080fd5b6020840193505b828410156123e4576123d18985612289565b825260208201915060a0840193506123bf565b8452505050602091820151918101919091529392505050565b60006020828403121561240f57600080fd5b815167ffffffffffffffff81111561242657600080fd5b82016080818503121561243857600080fd5b6124406117d0565b81518152602082015167ffffffffffffffff81111561245e57600080fd5b61246a86828501611eb8565b60208301525061247c6040830161204d565b604082015260608201519150612491826118e7565b60608101919091529392505050565b6000602082840312156124b257600080fd5b815167ffffffffffffffff8111156124c957600080fd5b8201601f810184136124da57600080fd5b80516124e861186b8261216e565b8082825260208201915060208360071b85010192508683111561250a57600080fd5b6020840193505b82841015612581576080848803121561252957600080fd5b6125316117d0565b845161253c81611734565b8152602085015161254c81611dab565b6020820152604085015161255f816118e7565b6040820152606085810151908201528252608090930192602090910190612511565b9695505050505050565b60006020828403121561259d57600080fd5b815161176681611734565b6040815260006125bb60408301856119ef565b90506125c683611a45565b8260208301529392505050565b600060a082840312156125e557600080fd5b6109fd8383612289565b60808152600061260260808301876119ef565b828103602084015261261481876119ef565b9150508360408301526001600160a01b03831660608301529594505050505056fe596f75206d757374207570677261646520666972737400000000000000000000a2646970667358221220ee5f31e4d4e656a8924ed21c883e73b6ecc619fffa6659e104e7e5f33b0031ac64736f6c634300081c0033",
  "linkReferences": {},
  "deployedLinkReferences": {}
}