{
  "_format": "hh-sol-artifact-1",
  "contractName": "Condominium",
  "sourceName": "contracts/Condominium.sol",
  "abi": [
    {
      "inputs": [],
      "stateMutability": "nonpayable",
      "type": "constructor"
    },
    {
      "inputs": [
        {
          "internalType": "address",
          "name": "resident",
          "type": "address"
        },
        {
          "internalType": "uint16",
          "name": "residenceId",
          "type": "uint16"
        }
      ],
      "name": "addResident",
      "outputs": [],
      "stateMutability": "nonpayable",
      "type": "function"
    },
    {
      "inputs": [
        {
          "internalType": "string",
          "name": "title",
          "type": "string"
        },
        {
          "internalType": "string",
          "name": "description",
          "type": "string"
        },
        {
          "internalType": "enum CondominiumLib.Category",
          "name": "category",
          "type": "uint8"
        },
        {
          "internalType": "uint256",
          "name": "amount",
          "type": "uint256"
        },
        {
          "internalType": "address",
          "name": "responsible",
          "type": "address"
        }
      ],
      "name": "addTopic",
      "outputs": [],
      "stateMutability": "nonpayable",
      "type": "function"
    },
    {
      "inputs": [
        {
          "internalType": "string",
          "name": "title",
          "type": "string"
        }
      ],
      "name": "closeVoting",
      "outputs": [
        {
          "components": [
            {
              "internalType": "bytes32",
              "name": "id",
              "type": "bytes32"
            },
            {
              "internalType": "string",
              "name": "title",
              "type": "string"
            },
            {
              "internalType": "enum CondominiumLib.Status",
              "name": "status",
              "type": "uint8"
            },
            {
              "internalType": "enum CondominiumLib.Category",
              "name": "category",
              "type": "uint8"
            }
          ],
          "internalType": "struct CondominiumLib.TopicUpdate",
          "name": "",
          "type": "tuple"
        }
      ],
      "stateMutability": "nonpayable",
      "type": "function"
    },
    {
      "inputs": [
        {
          "internalType": "uint256",
          "name": "",
          "type": "uint256"
        }
      ],
      "name": "counselors",
      "outputs": [
        {
          "internalType": "address",
          "name": "",
          "type": "address"
        }
      ],
      "stateMutability": "view",
      "type": "function"
    },
    {
      "inputs": [
        {
          "internalType": "string",
          "name": "topicToEdit",
          "type": "string"
        },
        {
          "internalType": "string",
          "name": "description",
          "type": "string"
        },
        {
          "internalType": "uint256",
          "name": "amount",
          "type": "uint256"
        },
        {
          "internalType": "address",
          "name": "responsible",
          "type": "address"
        }
      ],
      "name": "editTopic",
      "outputs": [
        {
          "components": [
            {
              "internalType": "bytes32",
              "name": "id",
              "type": "bytes32"
            },
            {
              "internalType": "string",
              "name": "title",
              "type": "string"
            },
            {
              "internalType": "enum CondominiumLib.Status",
              "name": "status",
              "type": "uint8"
            },
            {
              "internalType": "enum CondominiumLib.Category",
              "name": "category",
              "type": "uint8"
            }
          ],
          "internalType": "struct CondominiumLib.TopicUpdate",
          "name": "",
          "type": "tuple"
        }
      ],
      "stateMutability": "nonpayable",
      "type": "function"
    },
    {
      "inputs": [],
      "name": "getManager",
      "outputs": [
        {
          "internalType": "address",
          "name": "",
          "type": "address"
        }
      ],
      "stateMutability": "view",
      "type": "function"
    },
    {
      "inputs": [],
      "name": "getQuota",
      "outputs": [
        {
          "internalType": "uint256",
          "name": "",
          "type": "uint256"
        }
      ],
      "stateMutability": "view",
      "type": "function"
    },
    {
      "inputs": [
        {
          "internalType": "address",
          "name": "resident",
          "type": "address"
        }
      ],
      "name": "getResident",
      "outputs": [
        {
          "components": [
            {
              "internalType": "address",
              "name": "wallet",
              "type": "address"
            },
            {
              "internalType": "uint16",
              "name": "residence",
              "type": "uint16"
            },
            {
              "internalType": "bool",
              "name": "isCounselor",
              "type": "bool"
            },
            {
              "internalType": "bool",
              "name": "isManager",
              "type": "bool"
            },
            {
              "internalType": "uint256",
              "name": "nextPayment",
              "type": "uint256"
            }
          ],
          "internalType": "struct CondominiumLib.Resident",
          "name": "",
          "type": "tuple"
        }
      ],
      "stateMutability": "view",
      "type": "function"
    },
    {
      "inputs": [
        {
          "internalType": "uint256",
          "name": "page",
          "type": "uint256"
        },
        {
          "internalType": "uint256",
          "name": "pageSize",
          "type": "uint256"
        }
      ],
      "name": "getResidents",
      "outputs": [
        {
          "components": [
            {
              "components": [
                {
                  "internalType": "address",
                  "name": "wallet",
                  "type": "address"
                },
                {
                  "internalType": "uint16",
                  "name": "residence",
                  "type": "uint16"
                },
                {
                  "internalType": "bool",
                  "name": "isCounselor",
                  "type": "bool"
                },
                {
                  "internalType": "bool",
                  "name": "isManager",
                  "type": "bool"
                },
                {
                  "internalType": "uint256",
                  "name": "nextPayment",
                  "type": "uint256"
                }
              ],
              "internalType": "struct CondominiumLib.Resident[]",
              "name": "residents",
              "type": "tuple[]"
            },
            {
              "internalType": "uint256",
              "name": "total",
              "type": "uint256"
            }
          ],
          "internalType": "struct CondominiumLib.ResidentPage",
          "name": "",
          "type": "tuple"
        }
      ],
      "stateMutability": "view",
      "type": "function"
    },
    {
      "inputs": [
        {
          "internalType": "string",
          "name": "title",
          "type": "string"
        }
      ],
      "name": "getTopic",
      "outputs": [
        {
          "components": [
            {
              "internalType": "string",
              "name": "title",
              "type": "string"
            },
            {
              "internalType": "string",
              "name": "description",
              "type": "string"
            },
            {
              "internalType": "enum CondominiumLib.Status",
              "name": "status",
              "type": "uint8"
            },
            {
              "internalType": "uint256",
              "name": "createDate",
              "type": "uint256"
            },
            {
              "internalType": "uint256",
              "name": "startDate",
              "type": "uint256"
            },
            {
              "internalType": "uint256",
              "name": "endDate",
              "type": "uint256"
            },
            {
              "internalType": "enum CondominiumLib.Category",
              "name": "category",
              "type": "uint8"
            },
            {
              "internalType": "uint256",
              "name": "amount",
              "type": "uint256"
            },
            {
              "internalType": "address",
              "name": "responsible",
              "type": "address"
            }
          ],
          "internalType": "struct CondominiumLib.Topic",
          "name": "",
          "type": "tuple"
        }
      ],
      "stateMutability": "view",
      "type": "function"
    },
    {
      "inputs": [
        {
          "internalType": "uint256",
          "name": "page",
          "type": "uint256"
        },
        {
          "internalType": "uint256",
          "name": "pageSize",
          "type": "uint256"
        }
      ],
      "name": "getTopics",
      "outputs": [
        {
          "components": [
            {
              "components": [
                {
                  "internalType": "string",
                  "name": "title",
                  "type": "string"
                },
                {
                  "internalType": "string",
                  "name": "description",
                  "type": "string"
                },
                {
                  "internalType": "enum CondominiumLib.Status",
                  "name": "status",
                  "type": "uint8"
                },
                {
                  "internalType": "uint256",
                  "name": "createDate",
                  "type": "uint256"
                },
                {
                  "internalType": "uint256",
                  "name": "startDate",
                  "type": "uint256"
                },
                {
                  "internalType": "uint256",
                  "name": "endDate",
                  "type": "uint256"
                },
                {
                  "internalType": "enum CondominiumLib.Category",
                  "name": "category",
                  "type": "uint8"
                },
                {
                  "internalType": "uint256",
                  "name": "amount",
                  "type": "uint256"
                },
                {
                  "internalType": "address",
                  "name": "responsible",
                  "type": "address"
                }
              ],
              "internalType": "struct CondominiumLib.Topic[]",
              "name": "topics",
              "type": "tuple[]"
            },
            {
              "internalType": "uint256",
              "name": "total",
              "type": "uint256"
            }
          ],
          "internalType": "struct CondominiumLib.TopicPage",
          "name": "",
          "type": "tuple"
        }
      ],
      "stateMutability": "view",
      "type": "function"
    },
    {
      "inputs": [
        {
          "internalType": "string",
          "name": "topicTitle",
          "type": "string"
        }
      ],
      "name": "getVotes",
      "outputs": [
        {
          "components": [
            {
              "internalType": "address",
              "name": "resident",
              "type": "address"
            },
            {
              "internalType": "uint16",
              "name": "residence",
              "type": "uint16"
            },
            {
              "internalType": "enum CondominiumLib.Options",
              "name": "option",
              "type": "uint8"
            },
            {
              "internalType": "uint256",
              "name": "timestamp",
              "type": "uint256"
            }
          ],
          "internalType": "struct CondominiumLib.Vote[]",
          "name": "",
          "type": "tuple[]"
        }
      ],
      "stateMutability": "view",
      "type": "function"
    },
    {
      "inputs": [
        {
          "internalType": "address",
          "name": "resident",
          "type": "address"
        }
      ],
      "name": "isResident",
      "outputs": [
        {
          "internalType": "bool",
          "name": "",
          "type": "bool"
        }
      ],
      "stateMutability": "view",
      "type": "function"
    },
    {
      "inputs": [],
      "name": "manager",
      "outputs": [
        {
          "internalType": "address",
          "name": "",
          "type": "address"
        }
      ],
      "stateMutability": "view",
      "type": "function"
    },
    {
      "inputs": [],
      "name": "monthlyQuota",
      "outputs": [
        {
          "internalType": "uint256",
          "name": "",
          "type": "uint256"
        }
      ],
      "stateMutability": "view",
      "type": "function"
    },
    {
      "inputs": [
        {
          "internalType": "string",
          "name": "title",
          "type": "string"
        }
      ],
      "name": "numberOfVotes",
      "outputs": [
        {
          "internalType": "uint256",
          "name": "",
          "type": "uint256"
        }
      ],
      "stateMutability": "view",
      "type": "function"
    },
    {
      "inputs": [
        {
          "internalType": "string",
          "name": "title",
          "type": "string"
        }
      ],
      "name": "openVoting",
      "outputs": [
        {
          "components": [
            {
              "internalType": "bytes32",
              "name": "id",
              "type": "bytes32"
            },
            {
              "internalType": "string",
              "name": "title",
              "type": "string"
            },
            {
              "internalType": "enum CondominiumLib.Status",
              "name": "status",
              "type": "uint8"
            },
            {
              "internalType": "enum CondominiumLib.Category",
              "name": "category",
              "type": "uint8"
            }
          ],
          "internalType": "struct CondominiumLib.TopicUpdate",
          "name": "",
          "type": "tuple"
        }
      ],
      "stateMutability": "nonpayable",
      "type": "function"
    },
    {
      "inputs": [
        {
          "internalType": "uint16",
          "name": "residenceId",
          "type": "uint16"
        }
      ],
      "name": "payQuota",
      "outputs": [],
      "stateMutability": "payable",
      "type": "function"
    },
    {
      "inputs": [
        {
          "internalType": "address",
          "name": "resident",
          "type": "address"
        }
      ],
      "name": "removeResident",
      "outputs": [],
      "stateMutability": "nonpayable",
      "type": "function"
    },
    {
      "inputs": [
        {
          "internalType": "string",
          "name": "title",
          "type": "string"
        }
      ],
      "name": "removeTopic",
      "outputs": [
        {
          "components": [
            {
              "internalType": "bytes32",
              "name": "id",
              "type": "bytes32"
            },
            {
              "internalType": "string",
              "name": "title",
              "type": "string"
            },
            {
              "internalType": "enum CondominiumLib.Status",
              "name": "status",
              "type": "uint8"
            },
            {
              "internalType": "enum CondominiumLib.Category",
              "name": "category",
              "type": "uint8"
            }
          ],
          "internalType": "struct CondominiumLib.TopicUpdate",
          "name": "",
          "type": "tuple"
        }
      ],
      "stateMutability": "nonpayable",
      "type": "function"
    },
    {
      "inputs": [
        {
          "internalType": "uint16",
          "name": "residenceId",
          "type": "uint16"
        }
      ],
      "name": "residenceExists",
      "outputs": [
        {
          "internalType": "bool",
          "name": "",
          "type": "bool"
        }
      ],
      "stateMutability": "view",
      "type": "function"
    },
    {
      "inputs": [
        {
          "internalType": "uint16",
          "name": "",
          "type": "uint16"
        }
      ],
      "name": "residences",
      "outputs": [
        {
          "internalType": "bool",
          "name": "",
          "type": "bool"
        }
      ],
      "stateMutability": "view",
      "type": "function"
    },
    {
      "inputs": [
        {
          "internalType": "uint256",
          "name": "",
          "type": "uint256"
        }
      ],
      "name": "residents",
      "outputs": [
        {
          "internalType": "address",
          "name": "wallet",
          "type": "address"
        },
        {
          "internalType": "uint16",
          "name": "residence",
          "type": "uint16"
        },
        {
          "internalType": "bool",
          "name": "isCounselor",
          "type": "bool"
        },
        {
          "internalType": "bool",
          "name": "isManager",
          "type": "bool"
        },
        {
          "internalType": "uint256",
          "name": "nextPayment",
          "type": "uint256"
        }
      ],
      "stateMutability": "view",
      "type": "function"
    },
    {
      "inputs": [
        {
          "internalType": "address",
          "name": "resident",
          "type": "address"
        },
        {
          "internalType": "bool",
          "name": "isEntering",
          "type": "bool"
        }
      ],
      "name": "setCounselor",
      "outputs": [],
      "stateMutability": "nonpayable",
      "type": "function"
    },
    {
      "inputs": [
        {
          "internalType": "string",
          "name": "title",
          "type": "string"
        }
      ],
      "name": "topicExists",
      "outputs": [
        {
          "internalType": "bool",
          "name": "",
          "type": "bool"
        }
      ],
      "stateMutability": "view",
      "type": "function"
    },
    {
      "inputs": [
        {
          "internalType": "uint256",
          "name": "",
          "type": "uint256"
        }
      ],
      "name": "topics",
      "outputs": [
        {
          "internalType": "string",
          "name": "title",
          "type": "string"
        },
        {
          "internalType": "string",
          "name": "description",
          "type": "string"
        },
        {
          "internalType": "enum CondominiumLib.Status",
          "name": "status",
          "type": "uint8"
        },
        {
          "internalType": "uint256",
          "name": "createDate",
          "type": "uint256"
        },
        {
          "internalType": "uint256",
          "name": "startDate",
          "type": "uint256"
        },
        {
          "internalType": "uint256",
          "name": "endDate",
          "type": "uint256"
        },
        {
          "internalType": "enum CondominiumLib.Category",
          "name": "category",
          "type": "uint8"
        },
        {
          "internalType": "uint256",
          "name": "amount",
          "type": "uint256"
        },
        {
          "internalType": "address",
          "name": "responsible",
          "type": "address"
        }
      ],
      "stateMutability": "view",
      "type": "function"
    },
    {
      "inputs": [
        {
          "internalType": "string",
          "name": "topicTitle",
          "type": "string"
        },
        {
          "internalType": "uint256",
          "name": "amount",
          "type": "uint256"
        }
      ],
      "name": "transfer",
      "outputs": [
        {
          "components": [
            {
              "internalType": "address",
              "name": "to",
              "type": "address"
            },
            {
              "internalType": "uint256",
              "name": "amount",
              "type": "uint256"
            },
            {
              "internalType": "string",
              "name": "topic",
              "type": "string"
            }
          ],
          "internalType": "struct CondominiumLib.TransferReceipt",
          "name": "",
          "type": "tuple"
        }
      ],
      "stateMutability": "nonpayable",
      "type": "function"
    },
    {
      "inputs": [
        {
          "internalType": "string",
          "name": "title",
          "type": "string"
        },
        {
          "internalType": "enum CondominiumLib.Options",
          "name": "option",
          "type": "uint8"
        }
      ],
      "name": "vote",
      "outputs": [],
      "stateMutability": "nonpayable",
      "type": "function"
    }
  ],
  "bytecode": "0x6080604052662386f26fc1000060015534801561001b57600080fd5b50600080546001600160a01b0319163317905560015b60028161ffff16116100e85760015b60058161ffff16116100d55760015b60058161ffff16116100c2576001600260008361006d866064610104565b610079886103e8610104565b6100839190610128565b61008d9190610128565b61ffff1681526020810191909152604001600020805460ff1916911515919091179055806100ba81610148565b91505061004f565b50806100cd81610148565b915050610040565b50806100e081610148565b915050610031565b50610169565b634e487b7160e01b600052601160045260246000fd5b61ffff8181168382160290811690818114610121576101216100ee565b5092915050565b61ffff8181168382160190811115610142576101426100ee565b92915050565b600061ffff821661ffff8103610160576101606100ee565b60010192915050565b6142d2806101786000396000f3fe6080604052600436106101b75760003560e01c80637b57ee49116100ec578063a7107f021161008a578063bc2f89f311610064578063bc2f89f3146105b4578063c12e8063146105e4578063d5009584146105f7578063eaf5d9dc1461061557600080fd5b8063a7107f0214610547578063abeb376114610574578063b15835461461059457600080fd5b806390ca27f3116100c657806390ca27f3146104b3578063967d59e4146104d357806396fa1def146105075780639e1bf9851461052757600080fd5b80637b57ee4914610439578063805265e5146104665780638fc5dad81461049357600080fd5b8063481c6a751161015957806368aca3351161013357806368aca335146103a6578063783bb57d146103d657806378b5749d146103ec5780637932938b1461040c57600080fd5b8063481c6a751461032157806356ea46d914610359578063597de9871461038657600080fd5b80631df8ba77116101955780631df8ba771461027e5780632f9f21fe1461029d57806343b8c6b1146102d2578063474502d8146102f457600080fd5b80631283d0a0146101bc57806312cb70c71461021c57806318d9adab14610249575b600080fd5b3480156101c857600080fd5b506101dc6101d73660046138c6565b610635565b604080516001600160a01b03909616865261ffff9094166020860152911515928401929092529015156060830152608082015260a0015b60405180910390f35b34801561022857600080fd5b5061023c610237366004613984565b61068e565b6040516102139190613a0f565b34801561025557600080fd5b506102696102643660046138c6565b610965565b60405161021399989796959493929190613a92565b34801561028a57600080fd5b506001545b604051908152602001610213565b3480156102a957600080fd5b5061028f6102b8366004613b0e565b805160209182012060009081526009909152604090205490565b3480156102de57600080fd5b506102f26102ed366004613b67565b610ae4565b005b34801561030057600080fd5b5061031461030f366004613b0e565b610e3b565b6040516102139190613ca2565b34801561032d57600080fd5b50600054610341906001600160a01b031681565b6040516001600160a01b039091168152602001610213565b34801561036557600080fd5b50610379610374366004613cbc565b610e4c565b6040516102139190613cde565b34801561039257600080fd5b506102f26103a1366004613d5a565b61113f565b3480156103b257600080fd5b506103c66103c1366004613d5a565b6113db565b6040519015158152602001610213565b3480156103e257600080fd5b5061028f60015481565b3480156103f857600080fd5b506103c6610407366004613b0e565b6113f6565b34801561041857600080fd5b5061042c610427366004613cbc565b61140d565b6040516102139190613d75565b34801561044557600080fd5b50610459610454366004613b0e565b611564565b6040516102139190613e18565b34801561047257600080fd5b50610486610481366004613b0e565b611ad3565b6040516102139190613e71565b34801561049f57600080fd5b506104596104ae366004613b0e565b611bad565b3480156104bf57600080fd5b506102f26104ce366004613eed565b6121f2565b3480156104df57600080fd5b506103c66104ee366004613f51565b61ffff1660009081526002602052604090205460ff1690565b34801561051357600080fd5b506102f2610522366004613f6c565b6126a8565b34801561053357600080fd5b50610459610542366004613b0e565b6126c4565b34801561055357600080fd5b50610567610562366004613d5a565b6128f0565b6040516102139190613f9d565b34801561058057600080fd5b5061034161058f3660046138c6565b612924565b3480156105a057600080fd5b506102f26105af366004613fe7565b61294e565b3480156105c057600080fd5b506103c66105cf366004613f51565b60026020526000908152604090205460ff1681565b6102f26105f2366004613f51565b612bc3565b34801561060357600080fd5b506000546001600160a01b0316610341565b34801561062157600080fd5b5061045961063036600461401a565b612d47565b6003818154811061064557600080fd5b6000918252602090912060029091020180546001909101546001600160a01b038216925061ffff600160a01b8304169160ff600160b01b8204811692600160b81b909204169085565b604080516060808201835260008083526020830152918101919091526000546001600160a01b031632146107095760405162461bcd60e51b815260206004820152601c60248201527f4f6e6c7920746865206d616e616765722063616e20646f20746869730000000060448201526064015b60405180910390fd5b814710156107595760405162461bcd60e51b815260206004820152601260248201527f496e73756666696369656e742066756e647300000000000000000000000000006044820152606401610700565b600061076484612fc9565b905060028160400151600581111561077e5761077e613a4f565b1480156107a0575060018160c00151600381111561079e5761079e613a4f565b145b6108125760405162461bcd60e51b815260206004820152603460248201527f4f6e6c7920415050524f564544205350454e5420746f706963732063616e206260448201527f65207573656420666f72207472616e73666572730000000000000000000000006064820152608401610700565b828160e00151101561088c5760405162461bcd60e51b815260206004820152603360248201527f54686520616d6f756e74206d757374206265206c657373206f7220657175616c60448201527f2074686520415050524f56454420746f706963000000000000000000000000006064820152608401610700565b8061010001516001600160a01b03166108fc849081150290604051600060405180830381858888f193505050501580156108ca573d6000803e3d6000fd5b508351602080860191909120600081815260089092526040909120546007805460059190839081106108fe576108fe61409d565b60009182526020909120600260099092020101805460ff1916600183600581111561092b5761092b613a4f565b021790555060405180606001604052808461010001516001600160a01b031681526020018681526020018781525093505050505b92915050565b6007818154811061097557600080fd5b9060005260206000209060090201600091509050806000018054610998906140b3565b80601f01602080910402602001604051908101604052809291908181526020018280546109c4906140b3565b8015610a115780601f106109e657610100808354040283529160200191610a11565b820191906000526020600020905b8154815290600101906020018083116109f457829003601f168201915b505050505090806001018054610a26906140b3565b80601f0160208091040260200160405190810160405280929190818152602001828054610a52906140b3565b8015610a9f5780601f10610a7457610100808354040283529160200191610a9f565b820191906000526020600020905b815481529060010190602001808311610a8257829003601f168201915b505050600284015460038501546004860154600587015460068801546007890154600890990154979860ff95861698949750929550909316916001600160a01b031689565b6000546001600160a01b03163203610bc457610aff326113db565b610b615760405162461bcd60e51b815260206004820152602d60248201527f4f6e6c7920746865206d616e61676572206f7220746865207265736964656e7460448201526c732063616e20646f207468697360981b6064820152608401610700565b6000610b6c32613282565b90508060800151421115610bc25760405162461bcd60e51b815260206004820152601d60248201527f546865207265736964656e74206d7573742062652064656661757465720000006044820152606401610700565b505b610bcd856113f6565b15610c1a5760405162461bcd60e51b815260206004820152601960248201527f5468697320746f70696320616c726561647920657869737473000000000000006044820152606401610700565b8115610c9d576002836003811115610c3457610c34613a4f565b1480610c5157506001836003811115610c4f57610c4f613a4f565b145b610c9d5760405162461bcd60e51b815260206004820152600e60248201527f57726f6e672063617465676f72790000000000000000000000000000000000006044820152606401610700565b60408051610120810182528681526020810186905260009181018281526020014281526020016000815260200160008152602001856003811115610ce357610ce3613a4f565b8152602081018590526040016001600160a01b038416610d035732610d05565b835b6001600160a01b031690526007805488516020808b01919091206000908152600890915260408120829055600182018355919091528151919250829160099091027fa66cc928b5edb82af9bd49922954155ab7b0942694bea4ce44661d9a8736c68801908190610d75908261413c565b5060208201516001820190610d8a908261413c565b50604082015160028201805460ff19166001836005811115610dae57610dae613a4f565b0217905550606082015181600301556080820151816004015560a0820151816005015560c08201518160060160006101000a81548160ff02191690836003811115610dfb57610dfb613a4f565b021790555060e0820151600782015561010090910151600890910180546001600160a01b0319166001600160a01b03909216919091179055505050505050565b610e4361381d565b61095f82612fc9565b60408051808201909152606081526000602082015260008267ffffffffffffffff811115610e7c57610e7c6138df565b604051908082528060200260200182016040528015610eb557816020015b610ea261381d565b815260200190600190039081610e9a5790505b509050600083610ec6600187614211565b610ed09190614224565b90506000815b610ee0868461423b565b81108015610eef575060075481105b156111205760078181548110610f0757610f0761409d565b906000526020600020906009020160405180610120016040529081600082018054610f31906140b3565b80601f0160208091040260200160405190810160405280929190818152602001828054610f5d906140b3565b8015610faa5780601f10610f7f57610100808354040283529160200191610faa565b820191906000526020600020905b815481529060010190602001808311610f8d57829003601f168201915b50505050508152602001600182018054610fc3906140b3565b80601f0160208091040260200160405190810160405280929190818152602001828054610fef906140b3565b801561103c5780601f106110115761010080835404028352916020019161103c565b820191906000526020600020905b81548152906001019060200180831161101f57829003601f168201915b5050509183525050600282015460209091019060ff16600581111561106357611063613a4f565b600581111561107457611074613a4f565b815260038281015460208301526004830154604083015260058301546060830152600683015460809092019160ff16908111156110b3576110b3613a4f565b60038111156110c4576110c4613a4f565b8152600782015460208201526008909101546001600160a01b031660409091015284836110f08161424e565b9450815181106111025761110261409d565b602002602001018190525080806111189061424e565b915050610ed6565b5050604080518082019091529182525060075460208201529392505050565b6000546001600160a01b031632146111995760405162461bcd60e51b815260206004820152601c60248201527f4f6e6c7920746865206d616e616765722063616e20646f2074686973000000006044820152606401610700565b6111a2816133b3565b156111ef5760405162461bcd60e51b815260206004820152601d60248201527f4120636f756e73656c6f722063616e6e6f742062652072656d6f7665640000006044820152606401610700565b6001600160a01b03811660009081526004602052604090205460035461121790600190614211565b811461136957600380546000919061123190600190614211565b815481106112415761124161409d565b60009182526020918290206040805160a081018252600290930290910180546001600160a01b038116845261ffff600160a01b8204169484019490945260ff600160b01b85048116151592840192909252600160b81b90930416151560608201526001909101546080820152600380549192508291849081106112c6576112c661409d565b60009182526020808320845160029093020180548583015160408088015160608901511515600160b81b0260ff60b81b19911515600160b01b029190911661ffff60b01b1961ffff909416600160a01b0275ffffffffffffffffffffffffffffffffffffffffffff199095166001600160a01b03988916179490941792909216929092171782556080909501516001909101559351168152600490925290208190555b600380548061137a5761137a614267565b6000828152602080822060026000199094019384020180547fffffffffffffffff000000000000000000000000000000000000000000000000168155600101829055919092556001600160a01b039390931681526004909252506040812055565b6000806113e783613282565b6020015161ffff161192915050565b60008061140283612fc9565b606001511192915050565b60408051808201909152606081526000602082015260008267ffffffffffffffff81111561143d5761143d6138df565b60405190808252806020026020018201604052801561149657816020015b6040805160a08101825260008082526020808301829052928201819052606082018190526080820152825260001990920191018161145b5790505b5090506000836114a7600187614211565b6114b19190614224565b90506000815b6114c1868461423b565b811080156114d0575060035481105b156115455761150a600382815481106114eb576114eb61409d565b60009182526020909120600290910201546001600160a01b0316613282565b84836115158161424e565b9450815181106115275761152761409d565b6020026020010181905250808061153d9061424e565b9150506114b7565b5050604080518082019091529182525060035460208201529392505050565b61158e60408051608081018252600080825260606020830152909182019081526020016000905290565b6000546001600160a01b031632146115e85760405162461bcd60e51b815260206004820152601c60248201527f4f6e6c7920746865206d616e616765722063616e20646f2074686973000000006044820152606401610700565b60006115f383612fc9565b905060008160600151116116495760405162461bcd60e51b815260206004820152601960248201527f54686520746f70696320646f6573206e6f7420657869737473000000000000006044820152606401610700565b60008160400151600581111561166157611661613a4f565b146116ae5760405162461bcd60e51b815260206004820152601f60248201527f4f6e6c792049444c4520746f706963732063616e2062652072656d6f766564006044820152606401610700565b8251602080850191909120600081815260089092526040909120546007546116d890600190614211565b81146119ef5760078054600091906116f290600190614211565b815481106117025761170261409d565b90600052602060002090600902016040518061012001604052908160008201805461172c906140b3565b80601f0160208091040260200160405190810160405280929190818152602001828054611758906140b3565b80156117a55780601f1061177a576101008083540402835291602001916117a5565b820191906000526020600020905b81548152906001019060200180831161178857829003601f168201915b505050505081526020016001820180546117be906140b3565b80601f01602080910402602001604051908101604052809291908181526020018280546117ea906140b3565b80156118375780601f1061180c57610100808354040283529160200191611837565b820191906000526020600020905b81548152906001019060200180831161181a57829003601f168201915b5050509183525050600282015460209091019060ff16600581111561185e5761185e613a4f565b600581111561186f5761186f613a4f565b815260038281015460208301526004830154604083015260058301546060830152600683015460809092019160ff16908111156118ae576118ae613a4f565b60038111156118bf576118bf613a4f565b815260078281015460208301526008909201546001600160a01b031660409091015280549192508291849081106118f8576118f861409d565b600091825260209091208251600990920201908190611917908261413c565b506020820151600182019061192c908261413c565b50604082015160028201805460ff1916600183600581111561195057611950613a4f565b0217905550606082015181600301556080820151816004015560a0820151816005015560c08201518160060160006101000a81548160ff0219169083600381111561199d5761199d613a4f565b021790555060e0820151600782015561010090910151600891820180546001600160a01b0319166001600160a01b03909216919091179055905180516020918201206000908152919052604090208190555b6007805480611a0057611a00614267565b60008281526020812060001990920191600983020190611a208282613878565b611a2e600183016000613878565b5060028101805460ff1990811690915560006003830181905560048084018290556005840182905560068401805490931690925560078301819055600892830180546001600160a01b0319169055929093558482526020908152604080832092909255815160808101835285815286519181019190915291908201905b81526020018460c001516003811115611ac657611ac6613a4f565b905293505050505b919050565b60606009600083805190602001208152602001908152602001600020805480602002602001604051908101604052809291908181526020016000905b82821015611ba2576000848152602090819020604080516080810182526002860290920180546001600160a01b0381168452600160a01b810461ffff1694840194909452919290830190600160b01b900460ff166003811115611b7457611b74613a4f565b6003811115611b8557611b85613a4f565b815260200160018201548152505081526020019060010190611b0f565b505050509050919050565b611bd760408051608081018252600080825260606020830152909182019081526020016000905290565b6000546001600160a01b03163214611c315760405162461bcd60e51b815260206004820152601c60248201527f4f6e6c7920746865206d616e616765722063616e20646f2074686973000000006044820152606401610700565b6000611c3c83612fc9565b90506000816060015111611c925760405162461bcd60e51b815260206004820152601960248201527f54686520746f70696320646f6573206e6f7420657869737473000000000000006044820152606401610700565b600181604001516005811115611caa57611caa613a4f565b14611cf75760405162461bcd60e51b815260206004820181905260248201527f4f6e6c7920564f54494e4720746f706963732063616e20626520636c6f7365646044820152606401610700565b600560018260c001516003811115611d1157611d11613a4f565b03611d1e5750600a611d64565b60038260c001516003811115611d3657611d36613a4f565b03611d435750600f611d64565b60028260c001516003811115611d5b57611d5b613a4f565b03611d64575060145b8060ff16611d8685805160209182012060009081526009909152604090205490565b1015611dfa5760405162461bcd60e51b815260206004820152603460248201527f596f752063616e6e6f742066696e697368206120766f74696e6720776974686f60448201527f757420746865206d696e696d756d20766f7465730000000000000000000000006064820152608401610700565b60008060008087805190602001209050600060096000838152602001908152602001600020805480602002602001604051908101604052809291908181526020016000905b82821015611ed2576000848152602090819020604080516080810182526002860290920180546001600160a01b0381168452600160a01b810461ffff1694840194909452919290830190600160b01b900460ff166003811115611ea457611ea4613a4f565b6003811115611eb557611eb5613a4f565b815260200160018201548152505081526020019060010190611e3f565b50505050905060005b81518160ff161015611f9d576001828260ff1681518110611efe57611efe61409d565b6020026020010151604001516003811115611f1b57611f1b613a4f565b03611f325785611f2a8161427d565b965050611f8b565b6002828260ff1681518110611f4957611f4961409d565b6020026020010151604001516003811115611f6657611f66613a4f565b03611f7d5784611f758161427d565b955050611f8b565b83611f878161427d565b9450505b80611f958161427d565b915050611edb565b5060008460ff168660ff1611611fb4576003611fb7565b60025b60008481526008602052604090205460078054929350909183919083908110611fe257611fe261409d565b60009182526020909120600260099092020101805460ff1916600183600581111561200f5761200f613a4f565b021790555042600782815481106120285761202861409d565b6000918252602090912060056009909202010155600282600581111561205057612050613a4f565b0361219d5760028960c00151600381111561206d5761206d613a4f565b0361207f5760e089015160015561219d565b60038960c00151600381111561209757612097613a4f565b0361219d576000546120b1906001600160a01b03166113db565b1561210f57600080546001600160a01b03168152600460205260408120546003805490919081106120e4576120e461409d565b600091825260209091206002909102018054911515600160b81b0260ff60b81b199092169190911790555b610100890151600080546001600160a01b0319166001600160a01b038316179055612139906113db565b1561219d576101008901516001600160a01b0316600090815260046020526040902054600380546001929081106121725761217261409d565b600091825260209091206002909102018054911515600160b81b0260ff60b81b199092169190911790555b604080516080810182528581528a5160208201529081018360058111156121c6576121c6613a4f565b81526020018a60c0015160038111156121e1576121e1613a4f565b90529b9a5050505050505050505050565b6000546001600160a01b031632036122d25761220d326113db565b61226f5760405162461bcd60e51b815260206004820152602d60248201527f4f6e6c7920746865206d616e61676572206f7220746865207265736964656e7460448201526c732063616e20646f207468697360981b6064820152608401610700565b600061227a32613282565b905080608001514211156122d05760405162461bcd60e51b815260206004820152601d60248201527f546865207265736964656e74206d7573742062652064656661757465720000006044820152606401610700565b505b60008160038111156122e6576122e6613a4f565b036123335760405162461bcd60e51b815260206004820152601a60248201527f546865206f7074696f6e2063616e6e6f7420626520454d5054590000000000006044820152606401610700565b600061233e83612fc9565b905060008160600151116123945760405162461bcd60e51b815260206004820152601960248201527f54686520746f70696320646f6573206e6f7420657869737473000000000000006044820152606401610700565b6001816040015160058111156123ac576123ac613a4f565b146123f95760405162461bcd60e51b815260206004820152601f60248201527f4f6e6c7920564f54494e4720746f706963732063616e20626520766f746564006044820152606401610700565b3260009081526004602052604081205460038054909190811061241e5761241e61409d565b60009182526020808320600292909202909101548651878301208084526009835260408085208054825181870281018701909352808352600160a01b90940461ffff169650919493909290849084015b82821015612501576000848152602090819020604080516080810182526002860290920180546001600160a01b0381168452600160a01b810461ffff1694840194909452919290830190600160b01b900460ff1660038111156124d3576124d3613a4f565b60038111156124e4576124e4613a4f565b81526020016001820154815250508152602001906001019061246e565b50505050905060005b81518160ff1610156125c5578361ffff16828260ff16815181106125305761253061409d565b60200260200101516020015161ffff16036125b35760405162461bcd60e51b815260206004820152602360248201527f546865207265736964656e63652073686f756c6420766f7465206f6e6c79206f60448201527f6e636500000000000000000000000000000000000000000000000000000000006064820152608401610700565b806125bd8161427d565b91505061250a565b506040805160808101825232815261ffff8516602082015260009181018760038111156125f4576125f4613a4f565b8152426020918201526000858152600982526040808220805460018101825590835291839020845160029093020180549385015161ffff16600160a01b0275ffffffffffffffffffffffffffffffffffffffffffff199094166001600160a01b0390931692909217929092178082559183015192935083929091829060ff60b01b1916600160b01b83600381111561268e5761268e613a4f565b021790555060608201518160010155505050505050505050565b80156126bb576126b782613412565b5050565b6126b7826135a6565b6126ee60408051608081018252600080825260606020830152909182019081526020016000905290565b6000546001600160a01b031632146127485760405162461bcd60e51b815260206004820152601c60248201527f4f6e6c7920746865206d616e616765722063616e20646f2074686973000000006044820152606401610700565b600061275383612fc9565b905060008160600151116127a95760405162461bcd60e51b815260206004820152601960248201527f54686520746f70696320646f6573206e6f7420657869737473000000000000006044820152606401610700565b6000816040015160058111156127c1576127c1613a4f565b146128345760405162461bcd60e51b815260206004820152602760248201527f4f6e6c792049444c4520746f706963732063616e206265206f70656e20666f7260448201527f20766f74696e67000000000000000000000000000000000000000000000000006064820152608401610700565b8251602080850191909120600081815260089092526040909120546007805460019190839081106128675761286761409d565b60009182526020909120600260099092020101805460ff1916600183600581111561289457612894613a4f565b021790555042600782815481106128ad576128ad61409d565b90600052602060002090600902016004018190555060405180608001604052808381526020018460000151815260200160016005811115611aab57611aab613a4f565b6040805160a08101825260008082526020820181905291810182905260608101829052608081019190915261095f82613282565b6005818154811061293457600080fd5b6000918252602090912001546001600160a01b0316905081565b6000546001600160a01b031632148061296b575061296b326133b3565b6129dd5760405162461bcd60e51b815260206004820152602b60248201527f4f6e6c7920746865206d616e61676572206f722074686520636f756e63696c2060448201527f63616e20646f20746869730000000000000000000000000000000000000000006064820152608401610700565b816001600160a01b038116612a265760405162461bcd60e51b815260206004820152600f60248201526e496e76616c6964206164647265737360881b6044820152606401610700565b61ffff821660009081526002602052604090205460ff16612a895760405162461bcd60e51b815260206004820152601e60248201527f54686973207265736964656e636520646f6573206e6f742065786973747300006044820152606401610700565b6040805160a0810182526001600160a01b0380861680835261ffff808716602085019081526000958501868152865485169093146060860190815260808601878152600380546001818101835599829052975160029098027fc2575a0e9e593c00f959f8c92f12db2869c3395a3b0502d05e2516446f71f85b810180549551975194511515600160b81b0260ff60b81b19951515600160b01b029590951661ffff60b01b1998909716600160a01b0275ffffffffffffffffffffffffffffffffffffffffffff19909616999098169890981793909317949094169290921791909117909255517fc2575a0e9e593c00f959f8c92f12db2869c3395a3b0502d05e2516446f71f85c9092019190915554612ba29190614211565b6001600160a01b039093166000908152600460205260409020929092555050565b61ffff811660009081526002602052604090205460ff16612c265760405162461bcd60e51b815260206004820152601c60248201527f546865207265736964656e7420646f6573206e6f7420657869737473000000006044820152606401610700565b600154341015612c785760405162461bcd60e51b815260206004820152600b60248201527f57726f6e672076616c75650000000000000000000000000000000000000000006044820152606401610700565b61ffff81166000908152600660205260409020544211612cda5760405162461bcd60e51b815260206004820152601c60248201527f596f752063616e6e6f74207061792074776963652061206d6f6e7468000000006044820152606401610700565b61ffff81166000908152600660205260408120549003612d1857612d0162278d004261423b565b61ffff821660009081526006602052604090205550565b61ffff81166000908152600660205260408120805462278d009290612d3e90849061423b565b90915550505b50565b612d7160408051608081018252600080825260606020830152909182019081526020016000905290565b6000546001600160a01b03163214612dcb5760405162461bcd60e51b815260206004820152601c60248201527f4f6e6c7920746865206d616e616765722063616e20646f2074686973000000006044820152606401610700565b6000612dd686612fc9565b90506000816060015111612e2c5760405162461bcd60e51b815260206004820152601960248201527f5468697320746f70696320646f6573206e6f74206578697374000000000000006044820152606401610700565b600081604001516005811115612e4457612e44613a4f565b14612e915760405162461bcd60e51b815260206004820152601e60248201527f4f6e6c792049444c4520746f706963732063616e2062652065646974656400006044820152606401610700565b855160208088019190912060008181526008909252604090912054865115612ee6578660078281548110612ec757612ec761409d565b90600052602060002090600902016001019081612ee4919061413c565b505b8515612f16578560078281548110612f0057612f0061409d565b9060005260206000209060090201600701819055505b6001600160a01b03851615612f6f578460078281548110612f3957612f3961409d565b906000526020600020906009020160080160006101000a8154816001600160a01b0302191690836001600160a01b031602179055505b60405180608001604052808381526020018460000151815260200184604001516005811115612fa057612fa0613a4f565b81526020018460c001516003811115612fbb57612fbb613a4f565b905298975050505050505050565b612fd161381d565b8151602080840191909120600081815260089092526040909120546007548110156132105760006007828154811061300b5761300b61409d565b906000526020600020906009020160405180610120016040529081600082018054613035906140b3565b80601f0160208091040260200160405190810160405280929190818152602001828054613061906140b3565b80156130ae5780601f10613083576101008083540402835291602001916130ae565b820191906000526020600020905b81548152906001019060200180831161309157829003601f168201915b505050505081526020016001820180546130c7906140b3565b80601f01602080910402602001604051908101604052809291908181526020018280546130f3906140b3565b80156131405780601f1061311557610100808354040283529160200191613140565b820191906000526020600020905b81548152906001019060200180831161312357829003601f168201915b5050509183525050600282015460209091019060ff16600581111561316757613167613a4f565b600581111561317857613178613a4f565b815260038281015460208301526004830154604083015260058301546060830152600683015460809092019160ff16908111156131b7576131b7613a4f565b60038111156131c8576131c8613a4f565b8152600782015460208201526008909101546001600160a01b031660409091015290508115158061320157508051805160209091012083145b1561320e57949350505050565b505b604080516101408101825260006101208201818152825282516020818101855291815290820152908101600481526020016000815260200160008152602001600081526020016000600381111561326957613269613a4f565b8152600060208201819052604090910152949350505050565b6040805160a0810182526000808252602080830182905282840182905260608301829052608083018290526001600160a01b0385168252600490529190912054600354811015613381576000600382815481106132e1576132e161409d565b60009182526020918290206040805160a081018252600290930290910180546001600160a01b0380821680865261ffff600160a01b8404169686019690965260ff600160b01b83048116151594860194909452600160b81b909104909216151560608401526001015460808301529092508516900361337f5760208082015161ffff1660009081526006909152604090205460808201529392505050565b505b50506040805160a081018252600080825260208201819052918101829052606081018290526080810191909152919050565b6000805b60055481101561340957826001600160a01b0316600582815481106133de576133de61409d565b6000918252602090912001546001600160a01b0316036134015750600192915050565b6001016133b7565b50600092915050565b6000546001600160a01b0316321461346c5760405162461bcd60e51b815260206004820152601c60248201527f4f6e6c7920746865206d616e616765722063616e20646f2074686973000000006044820152606401610700565b806001600160a01b0381166134b55760405162461bcd60e51b815260206004820152600f60248201526e496e76616c6964206164647265737360881b6044820152606401610700565b6134be826113db565b61350a5760405162461bcd60e51b815260206004820181905260248201527f54686520636f756e73656c6f72206d7573742062652061207265736964656e746044820152606401610700565b6005805460018082019092557f036b6384b5eca791c62761152d0c79bb0604c104a5fb6f4eb0703f3154bb3db00180546001600160a01b0319166001600160a01b0385169081179091556000908152600460205260409020546003805490919081106135785761357861409d565b600091825260209091206002909102018054911515600160b01b0260ff60b01b199092169190911790555050565b6000546001600160a01b031632146136005760405162461bcd60e51b815260206004820152601c60248201527f4f6e6c7920746865206d616e616765722063616e20646f2074686973000000006044820152606401610700565b806001600160a01b0381166136495760405162461bcd60e51b815260206004820152600f60248201526e496e76616c6964206164647265737360881b6044820152606401610700565b620f424060005b6005548110156136a257836001600160a01b0316600582815481106136775761367761409d565b6000918252602090912001546001600160a01b03160361369a57600191506136a2565b600101613650565b5080620f4240036136f55760405162461bcd60e51b815260206004820152601360248201527f436f756e73656c6f72206e6f7420666f756e64000000000000000000000000006044820152606401610700565b60055461370490600190614211565b811461378d57600580546000919061371e90600190614211565b8154811061372e5761372e61409d565b600091825260209091200154600580546001600160a01b03909216925082918490811061375d5761375d61409d565b9060005260206000200160006101000a8154816001600160a01b0302191690836001600160a01b03160217905550505b600580548061379e5761379e614267565b60008281526020808220830160001990810180546001600160a01b03191690559092019092556001600160a01b03851682526004905260408120546003805490919081106137ee576137ee61409d565b600091825260209091206002909102018054911515600160b01b0260ff60b01b19909216919091179055505050565b604080516101208101825260608082526020820152908101600081526020016000815260200160008152602001600081526020016000600381111561386457613864613a4f565b815260006020820181905260409091015290565b508054613884906140b3565b6000825580601f10613894575050565b601f016020900490600052602060002090810190612d4491905b808211156138c257600081556001016138ae565b5090565b6000602082840312156138d857600080fd5b5035919050565b634e487b7160e01b600052604160045260246000fd5b600082601f83011261390657600080fd5b813567ffffffffffffffff811115613920576139206138df565b604051601f8201601f19908116603f0116810167ffffffffffffffff8111828210171561394f5761394f6138df565b60405281815283820160200185101561396757600080fd5b816020850160208301376000918101602001919091529392505050565b6000806040838503121561399757600080fd5b823567ffffffffffffffff8111156139ae57600080fd5b6139ba858286016138f5565b95602094909401359450505050565b6000815180845260005b818110156139ef576020818501810151868301820152016139d3565b506000602082860101526020601f19601f83011685010191505092915050565b602081526001600160a01b0382511660208201526020820151604082015260006040830151606080840152613a4760808401826139c9565b949350505050565b634e487b7160e01b600052602160045260246000fd5b60068110613a7557613a75613a4f565b9052565b60048110612d4457612d44613a4f565b613a7581613a79565b61012081526000613aa761012083018c6139c9565b8281036020840152613ab9818c6139c9565b915050613ac9604083018a613a65565b8760608301528660808301528560a0830152613ae485613a79565b8460c08301528360e08301526001600160a01b0383166101008301529a9950505050505050505050565b600060208284031215613b2057600080fd5b813567ffffffffffffffff811115613b3757600080fd5b613a47848285016138f5565b60048110612d4457600080fd5b80356001600160a01b0381168114611ace57600080fd5b600080600080600060a08688031215613b7f57600080fd5b853567ffffffffffffffff811115613b9657600080fd5b613ba2888289016138f5565b955050602086013567ffffffffffffffff811115613bbf57600080fd5b613bcb888289016138f5565b9450506040860135613bdc81613b43565b925060608601359150613bf160808701613b50565b90509295509295909350565b600081516101208452613c146101208501826139c9565b905060208301518482036020860152613c2d82826139c9565b9150506040830151613c426040860182613a65565b50606083015160608501526080830151608085015260a083015160a085015260c0830151613c7360c0860182613a89565b5060e083015160e0850152610100830151613c9a6101008601826001600160a01b03169052565b509392505050565b602081526000613cb56020830184613bfd565b9392505050565b60008060408385031215613ccf57600080fd5b50508035926020909101359150565b6020815260006060820183516040602085015281815180845260808601915060808160051b870101935060208301925060005b81811015613d4257607f19878603018352613d2d858551613bfd565b94506020938401939290920191600101613d11565b50505050602084015160408401528091505092915050565b600060208284031215613d6c57600080fd5b613cb582613b50565b602080825282516040838301528051606084018190526000929190910190829060808501905b80831015613e0157613dea8285516001600160a01b03815116825261ffff6020820151166020830152604081015115156040830152606081015115156060830152608081015160808301525050565b60a082019150602084019350600183019250613d9b565b506020860151604086015280935050505092915050565b60208152815160208201526000602083015160806040840152613e3e60a08401826139c9565b90506040840151613e526060850182613a65565b506060840151613e6181613a79565b6080939093019290925250919050565b602080825282518282018190526000918401906040840190835b81811015613ee25783516001600160a01b03815116845261ffff60208201511660208501526040810151613ebe81613a79565b60408501526060908101519084015260209390930192608090920191600101613e8b565b509095945050505050565b60008060408385031215613f0057600080fd5b823567ffffffffffffffff811115613f1757600080fd5b613f23858286016138f5565b9250506020830135613f3481613b43565b809150509250929050565b803561ffff81168114611ace57600080fd5b600060208284031215613f6357600080fd5b613cb582613f3f565b60008060408385031215613f7f57600080fd5b613f8883613b50565b915060208301358015158114613f3457600080fd5b60a0810161095f82846001600160a01b03815116825261ffff6020820151166020830152604081015115156040830152606081015115156060830152608081015160808301525050565b60008060408385031215613ffa57600080fd5b61400383613b50565b915061401160208401613f3f565b90509250929050565b6000806000806080858703121561403057600080fd5b843567ffffffffffffffff81111561404757600080fd5b614053878288016138f5565b945050602085013567ffffffffffffffff81111561407057600080fd5b61407c878288016138f5565b9350506040850135915061409260608601613b50565b905092959194509250565b634e487b7160e01b600052603260045260246000fd5b600181811c908216806140c757607f821691505b6020821081036140e757634e487b7160e01b600052602260045260246000fd5b50919050565b601f82111561413757806000526020600020601f840160051c810160208510156141145750805b601f840160051c820191505b818110156141345760008155600101614120565b50505b505050565b815167ffffffffffffffff811115614156576141566138df565b61416a8161416484546140b3565b846140ed565b6020601f82116001811461419e57600083156141865750848201515b600019600385901b1c1916600184901b178455614134565b600084815260208120601f198516915b828110156141ce57878501518255602094850194600190920191016141ae565b50848210156141ec5786840151600019600387901b60f8161c191681555b50505050600190811b01905550565b634e487b7160e01b600052601160045260246000fd5b8181038181111561095f5761095f6141fb565b808202811582820484141761095f5761095f6141fb565b8082018082111561095f5761095f6141fb565b600060018201614260576142606141fb565b5060010190565b634e487b7160e01b600052603160045260246000fd5b600060ff821660ff8103614293576142936141fb565b6001019291505056fea2646970667358221220086a52bdaedf0f448181e0cfad2c9e4474ddfd7095e6f96f6c59a68260d76fd164736f6c634300081c0033",
  "linkReferences": {},
  "deployedLinkReferences": {}
}